:100000000C9438000C9442000C9442000C94420072
:100010000C9442000C9442000C9442000C94420058
:100020000C9442000C9442000C9442000C94420048
:100030000C9442000C9442000C9442000C94420038
:100040000C9442000C9442000C9442000C94420028
:100050000C9442000C9442000C9442000C94420018
:100060000C9442000C9442000C9442000C94420008
:1000700011241FBECFEFD4E0DEBFCDBF0E9492009F
:100080000C94A6000C94000088B38E6088BB87EAAD
:1000900091E60197F1F700C0000088B3837F88BB29
:1000A00086B382718231E1F386B382718230E1F3EB
:1000B00088B3826288BB83B3EFE4F3EC3197F1F746
:1000C00000C00000C59882BB811103C08FEF82BDC4
:1000D00008959FEF980F933318F488EC82BD08952C
:1000E0009CEC980F933318F480EA82BD089599E947
:1000F000980F933318F48FE782BD089596E6980F12
:10010000933318F480E582BD08958D3C18F08EE19C
:1001100082BD08958F3F09F412BC089517B80E945C
:10012000440008951ABA14BA8FEF86B99FE297BBBC
:1001300081BB87B58A6787BD83B7896183BF82E04A
:1001400081BF82E188BB0E948E00FDCFF894FFCF73
:00000001FF
